00011601252001123456ADF       3000-001  00000010000100000000100003000-002  0000002000010000000020000                                                                                                                                                                                                                                                                                        000030000
000117012520011234563939      3000-001  00000050000100000000500003000-003  0000002000015000000030000                                                                                                                                                                                                                                                                                        000080000
000118012520011234568484      3000-003  0000003000012500000037500                                                                                                                                                                                                                                                                                                                           000037500
00011901252001123456ADFF      3000-001  00000010000100000000100003000-002  00000020000125000000250003000-003  0000003000015000000045000                                                                                                                                                                                                                                                     000080000
000120012520011234561234      3100-001  00000010000105000000105003200-001  00000020000175000000350003200-002  00000030000225000000675003000-003  0000003000025000000075000                                                                                                                                                                                                                  000188000